:1000000088DE002031A30208196E0208C19B020895
:100010002D6E0208416E0208556E020800000000B5
:10002000000000000000000000000000696E0208EF
:100030007D6E020800000000F13A00082F9B0208C4
:10004000F1A50208F5A50208F9A5020859720208EF
:1000500001A6020805A60208637002084B71020897
:100060009B71020815A6020819A602081DA602081F
:1000700021A6020825A6020829A602082DA6020824
:1000800031A6020835A6020839A602083DA60208D4
:1000900041A6020845A6020849A602084DA6020884
:1000A00051A6020855A6020859A602085DA6020834
:1000B00061A6020865A6020869A602086DA60208E4
:1000C00071A6020875A6020879A60208956E0208B4
:1000D00081A6020885A6020889A602088DA6020844
:1000E000FD710208E172020899A602089DA60208A5
:1000F000A1A60208A5A60208A9A60208ADA60208A4
:10010000B1A60208B5A60208B9A60208BDA6020853
:10011000C1A60208C5A60208C9A60208CDA6020803
:10012000D1A60208D5A60208D9A60208DDA60208B3
:10013000E1A60208E5A60208E9A60208EDA6020863
:10014000F1A60208F5A60208F9A60208FDA6020813
:1001500001A7020805A7020809A702080DA70208BF
:1001600011A7020815A7020819A702081DA702086F
:1001700021A7020825A7020829A702082DA702081F
:1001800031A7020835A70208DFF8CC0D00787047C8
:100190002DE9F0418CB001F0DFFC0446DFF8BC5DD6
:1001A0002E6841E096F9080007283CD00B283ADA7F
:1001B000062838D006F10807B86C002802D5216F50
:1001C0000818B8644FF0FF313046FA6D92699047D5
:1001D0008046B8F1010F04D197F84C00B96D096958
:1001E0008847B8F1020F0BD1797E38697A68801898
:1001F000BA6D52699047002802D0304601F032FDB6
:1002000000213046FA6D92699047022801D1012001
:10021000B87501213046FA6D92699047022802D1E3
:10022000304601F0CDFD3668AE42BBD1D4E91801AD
:10023000002901D100280BD00A208DF808000220E7
:100240008DF80000206FADF82A0000A802F046F9F2
:1002500001200CB0BDE8F08130B585B004460D46F4
:10026000CA208DF800002888ADF801000220ADF802
:100270000300BDF80100001D02F050FACDF809009E
:1002800002220DF1030102F073FA02222946DDF881
:100290000900801C02F06CFA2A882146DDF809006A
:1002A000001D02F065FA0020288000A9DFF8B00CDC
:1002B00002F064FA05B030BDC0F58060322801DA82
:1002C000012070470020704780B502F086FA407B1D
:1002D000002804D001F04CFCDFF8881C086001BD48
:1002E00080B501F045FCDFF8801C086001BDDFF837
:1002F000780C0068704718B400F10C030422DFF892
:10030000681C5C7DDB68C0681818201818BC02F0F7
:100310002FBA30B41488651C1580052565541488DF
:10032000651C1580635413885C1C1480007A585433
:1003300030BC7047F8B50E4614461D4629884A1C45
:100340002A8037220A5529884A1C2A80027A0A55AF
:1003500000F108077A7E786831182888001902F0C1
:1003600007FA2888797E40182880787E7968711885
:100370004058DFF8F01B0968401A0090042200A9D9
:100380002888001902F0F4F92888001D288080B21E
:10039000FFF792FF002803D029462046FFF75CFFB5
:1003A000F1BD2DE9F04104460D4616461F46DDF825
:1003B000188008E043463A4629462046FFF7BAFF30
:1003C00094F822002D18B542F4DBBDE8F081F8B5B1
:1003D000044615461E46069F00972269FFF7E1FF77
:1003E0002069854206DA009733462A4600212046D6
:1003F000FFF7D7FFF1BD00F110018A688B7CD2189E
:100400008A600069824201D10020886000208873E0
:10041000704770B582B000F1140674684569002D0C
:1004200007D500920B462246B17B6118FFF7CFFF3C
:1004300073BDAC4200920B462246294602DAFFF712
:10044000C6FF73BDFFF7ADFF73BD70B504460D4623
:100450001646FFF7DEFF0123324629462046FFF706
:1004600058FFA069606170BD2DE9F84304460D4650
:10047000164601F071FB804602F0AFF98146204636
:10048000FFF739FF04F10807386C012849DB99F8B8
:100490000A00002821D0B87D002879D00020786497
:1004A000B87E3A69F9688B1A834205D0002910D1C9
:1004B000BB689B1A83420CD13B7E002B06D0009672
:1004C0002B4682182046FFF782FF02E04FF0FF30F4
:1004D000F8602046BDE8F2438DE7786CD8F87010DC
:1004E000401A7864012815DA386C78643246294657
:1004F0002046FFF78EFFB87D002808D033462A46F5
:1005000039692046FFF716FF2046FFF774FF386968
:10051000F8603DE0B87D00283AD02046BDE8F243BF
:1005200069E7B87D002833D094F9080099F80A10DB
:1005300000291BD0092801D0072805D133462A46B7
:1005400039692046FFF7F6FE94F9080008281AD109
:1005500097F92C00012816DB386B8068B0F57A7F9C
:100560000BD1B7F94E00012807DA11E0082804D1B1
:10057000DFF8780C406800280AD133462A463969EA
:100580002046FFF7D7FE2046FFF735FF3869F860B1
:10059000BDE8F183F8B504460D46DFF8C069376859
:1005A00005E02A4621463846FFF75EFF3F68B7421E
:1005B000F7D1F1BD2DE9F04104460D46DFF8306C6E
:1005C000F76907F10C0898F81510D8F80C00FA68CC
:1005D0008018D8F854205269904700280AD001208A
:1005E00088F81200787A002804D02A462146384636
:1005F000FFF73AFFB66906F10C07797DF868F268F3
:1006000080187A6D52699047002809D00120B8748B
:10061000707A002804D02A4621463046FFF724FF8E
:100620000120BDE8F0810288D21C02800A80704758
:1006300080B50B889B1AADF80030BDF80030002B58
:1006400009D01018012100F8031C022200A9801E05
:1006500002F08EF801BD0888C01E088001BD2DE99A
:10066000F04FADF61C1D04460D4601F075FA074625
:1006700002F0B3F880462DA840F6680102F0C2FBF4
:1006800000208DF8020023A8282102F0BBFB05A85A
:10069000142102F0B7FB0AA8642102F0B3FB02A800
:1006A00000210A460B460EC00846ADF8000006467B
:1006B000D7E91801002902D1002800F0EA8298F950
:1006C000090003F00DF8002800F0E38200A9284695
:1006D000FFF7A9FFB0461CE0D7E91801424603F036
:1006E000EBF900F0010011F0000101D100280ED05B
:1006F00008EB8800DFF8FC1A01EBC00292F9090050
:10070000012804D10DF102012DA8126A904708F1C9
:100710000108B8F1240FDFDB304601901BE0288888
:10072000411C2980B97801552888FFF7C5FD0028AC
:100730000DD0BDF8002029462046FFF779FF294655
:100740002046FFF789FD00A92846FFF76CFF0198B6
:10075000401C40B2019001989DF80210884280F23E
:1007600090822988481C2880019840F20D1250433D
:100770002DAA825C0A5529884A1C2A802DAA00EBE2
:10078000020898F8010008552888411C298008F1C2
:100790000107797801557878032815D0092800F0E9
:1007A00023810C2800F0FD801A2800F00B821B2802
:1007B00000F02F811C2800F02F821D2800F03981C5
:1007C0001E2800F01982AAE798F80100032804D136
:1007D0002888411C2980B97801552888411C298026
:1007E000F9780155711CF878000647D405A83A79C4
:1007F0003254C9B27A790A54491CC9B200220A5447
:10080000491CC9B2BA790A54491CB8F80E20C9B2B9
:10081000130A0B54491CC9B20A54491C08F20E02AF
:10082000C9B293780B54491CC9B2D2780A54491CF6
:10083000C9B298F812200A54491CC9B298F813207A
:100840000A54491CC9B2FA790A54491CC9B23A7A05
:100850000A54491CC9B27A7A0A54491CC9B2BA7AF4
:100860000A544E1CF6B2324605A92888001901F038
:100870007FFF288850FA86F0288055E77A6823A8F9
:10088000130C3354C9B2130A0B54491CC9B20A548D
:10089000491CBA68C9B2130C0B54491CC9B2130ADB
:1008A0000B54491CC9B20A54491CFA68C9B2130C4A
:1008B0000B54491CC9B2130A0B54491CC9B20A543F
:1008C000491CD8F81120C9B2130C0B54491CC9B2E9
:1008D000130A0B54491CC9B20A54491CD8F82720E2
:1008E000C9B2130C0B54491CC9B2130A0B54491C4E
:1008F000C9B20A54491C08F22702C9B213790B5431
:10090000491CC9B253790B54491CD388C9B21E0A79
:100910000E54491CC9B20B54491CC9B2127A0A546C
:10092000491CD8F81520C9B2130C0B54491CC9B284
:10093000130A0B54491CC9B20A54491CD8F819208F
:10094000C9B2130C0B54491CC9B2130A0B54491CED
:10095000C9B20A54491CD8F81D20C9B2130C0B5453
:10096000491CC9B2130A0B54491CC9B20A54491C88
:10097000D8F82120C9B2130C0B54491CC9B2130A70
:100980000B54491CC9B20A544E1CF6B2324623A974
:100990002888001901F0ECFE288850FA86F028809B
:1009A000C2E608F10301B1F90300C0F3072242EAED
:1009B0000020A1F80300B1F90700C0F3072242EAC2
:1009C0000020A1F80700B1F90500C0F3072242EAB0
:1009D0000020A1F8050009222888001901F0C8FEAE
:1009E0002888093028809FE62888034698F8011057
:1009F000032909D1022208F10301181901F0B8FEF8
:100A00002888801C28808FE6401C2880B8781855DC
:100A10008AE62888411C2980B978015598F8010098
:100A200005287FF481AE2888411C29803979015539
:100A30007AE698F80100012840F0AA802888411C35
:100A40002980B97901554FF000090DF1280B7CE0A0
:100A5000192010FB098ADAF81B10F6B2080E06F806
:100A60000B00701CC0B20A0C00F80B20401CC0B276
:100A70000A0A00F80B20401CC0B200F80B10461CFC
:100A80000FF2182001F024FFDAF80B00F6B2010E85
:100A900006F80B10711CC9B2020C01F80B20491C9E
:100AA000C9B2020A01F80B20491CC9B201F80B00B7
:100AB000491CDAF80F00C9B2020E01F80B20491CDC
:100AC000C9B2020C01F80B20491CC9B2020A01F894
:100AD0000B20491CC9B201F80B00491CDAF81300BD
:100AE000C9B2020E01F80B20491CC9B2020C01F870
:100AF0000B20491CC9B2020A01F80B20491CC9B2DB
:100B000001F80B00481CBAF81F10C0B20A0A00F81E
:100B10000B20401CC0B200F80B10401CBAF8193072
:100B2000C0B2190A00F80B10401CC0B200F80B301C
:100B3000461CBAF81F20DAF81B100FF26C1001F0F7
:100B4000C7FE09F101095FFA89F9B8798145FFF615
:100B50007FAFF6B232460AA92888001901F008FED4
:100B6000288850FA86F02880B8F80721D8F80911AB
:100B700080B2001901F0FCFD2888B8F807110818A8
:100B80002880B8F807110FF2441001F0A1FECBE560
:100B900005287FF4C9AD0DF1280B387906F80B0054
:100BA000701CC0B2797900F80B10461CF6B23246C0
:100BB0000AA92888001901F0DBFD288850FA86F080
:100BC0002880B1E508F10301D1F80100020222F00A
:100BD000FF12000A00F0FF101043C1F801004FEAB5
:100BE0003040C1F8010007222888001901F0C0FD3B
:100BF0002888C01D288097E508F103010888020AAB
:100C000042EA0020088002222888001901F0B0FD85
:100C10002888801C288087E598F8010001287FF447
:100C200083AD02A8B9783154711CC9B2FA780A545C
:100C3000491CC9B23A790A54491CC9B27A790A5492
:100C4000491CFA88C9B2130A0B54491CC9B20A5488
:100C5000491CC9B27A7A0A54491CC9B23A7A0A5470
:100C6000491CC9B2BA7A0A544E1CF6B2324602A9DD
:100C70002888001901F07CFD288850FA86F0288029
:100C800052E5BDF8002029462046FFF7D1FC02F0CE
:100C900055FD0DF61C1DBDE8F08F000050443A4193
:100CA000504D33202564000050443A205374696D40
:100CB000652025642C204474696D653A2025642CD8
:100CC000205261643A202564000000004F4A483AEF
:100CD00020415442442073697A653A20256400001B
:100CE0002DE9F04105460E4601F077FD0746DFF895
:100CF000B04D2078401C207002F055FF6078401CF9
:100D0000607097F81880B8F1000F26D03088404402
:100D100080B2FFF7D1FA002803D031462846FFF70A
:100D20009BFA3088411C3180032141553088411C99
:100D3000318000F80580424607F1190130884019DA
:100D400001F016FD308840443080FF22002107F179
:100D5000190002F03FFF002038766078401E607076
:100D6000C0B2002801D102F018FFBDE8F04102F046
:100D7000C7BF38B504460D4601F02FFD817A002922
:100D800009D1417B002906D129884A1C2A800622E4
:100D90000A550121417331BD38B504460D462888F6
:100DA00000280CD02046FFF79BFF29462046FFF77E
:100DB000E0FF29462046BDE83440FFF74DBA31BD7B
:100DC00014B585B0049101A90022134614461CC134
:100DD0000A21ADF8001004218DF804108DF80500EB
:100DE0000A4605A90DF1060001F0C2FC042204A97F
:100DF0000DF10A0001F0BCFC00A901A8FFF72CFAD4
:100E000006B010BD80B507208DF802000120ADF8B6
:100E1000000000A90DF10200FFF71EFA01BDF8B5B0
:100E2000044601F0DAFCDFF8C853296A496C8A6885
:100E300042F210739A425AD10969002957D1807A37
:100E4000002854D0DFF8A46330880C30B0F5347F2C
:100E500001DD00203080012003F08AFA03F0C4FA9B
:100E6000ADF80200032003F083FA03F0BDFAADF8F9
:100E7000000003F0D0FA378802220DF10201B81900
:100E8000083001F075FCBF1C3780022200A9BFB2F8
:100E9000B819083001F06CFCBF1C378004222146D1
:100EA000BFB2B819083001F063FC381D308002224F
:100EB00080B2801900F1080106206B691B6E1B6A65
:100EC00098473088801C3080022280B2801900F15F
:100ED000080106206B681B6E1B6A98473088801CCF
:100EE000308070680C30B0F5347F00D27060F1BD96
:100EF0002DE9F041BD4C6068002828D02188884247
:100F00001FD001F00BFC054666682788A6EB070892
:100F10001FFA88F84246381900F10801284601F006
:100F200027FC3A4604F1080108EB050001F020FC1B
:100F30003246294604F1080001F01AFC284601F067
:100F400005FC626804F108010520FFF739FF002065
:100F500060602080BDE8F0817EBE0020BC070020DC
:100F6000D868002038BE00203CBE00202DE9F843A0
:100F700006460F46904601F030FC8146002500F001
:100F8000EBFDD6F80900041D3078014601297CD01C
:100F90000F2933D0352947D0802900F0A28081293C
:100FA00000F0A980822900F0A680852900F0A380A6
:100FB000862900F0A080882900F09D808A2900F011
:100FC000A2808B2900F0BB808C2900F0C7808D297E
:100FD00000F0D380DD2900F0DD80DF2900F0F38010
:100FE000F0292AD0F42934D0F62943D0F82961D049
:100FF000F9294FD0FF2900F0C58079E099F8160053
:10100000207099F81700002840F0DB804FF0FF3087
:10101000009003462A4642F21071082000F0E9FFD2
:10102000012089F81700CCE0012005F0D6FB284606
:1010300005F0C6FB207001205BE0DFF8680A01685C
:10104000090C21700168090A61700068A070012014
:101050004FE0D9F81000000E2070D9F81000000CF5
:101060006070D9F81000000AA070D9F81000E07084
:1010700001203EE0032221462846DFF82C3A9B68F7
:101080001B6E1B6A9847012033E0204605F018FDCF
:1010900001202EE0B6F80120B6F80300C010C0EB26
:1010A0000011D6F8050000EB8111204601F060FB2D
:1010B00001201EE02846ADF80000012071790129C9
:1010C00000D1032003F054F903F08EF9ADF80000CD
:1010D00003F0A1F9022200A9204601F049FB0120FA
:1010E00007E0D6F8050020702146284600F040FFB2
:1010F0002846BDE8F28329462170214600F07F0092
:1011000000F036FFF4E701202070DFF89C09466804
:101110002F46307F002801D12846EAE7707A002860
:1011200003D1306E4068804707462046316EC9695A
:101130008847002FDCD0306E80688047D8E70120D8
:10114000B6F80310C1F3C101091D884040F0020048
:1011500020702146012000F00BFFC9E799F800003C
:10116000207099F80300607099F80500A07099F854
:101170000600E07001202071BBE7204605F0B4FCBA
:101180000546B5E704F10802211D204603F0A6FE3E
:101190000120AEE77079DFF8101951F82060707AFD
:1011A00000280CD0424639463046FFF74EF9DFF8AA
:1011B000FC18082005F058FD0120207001E02846A9
:1011C0002070012095E77079DFF8DC1851F8206075
:1011D000306996F8221090FBF1F0401E0090042236
:1011E00000A9204601F0C4FA012082E7148B0020F8
:1011F00000000020F06C0020F0B599B0064601F028
:10120000ECFA054600F0A8FCD6F809100C1D317860
:1012100000220B924FF0FF320C9217460A46312AF9
:1012200000F04281322A00F04381332A00F04981E4
:10123000342A00F04A81A12A00F06381A22A00F03A
:101240007B81A42A00F08681B12A00F0C682B22AEE
:1012500000F0E583B82A00F09881C12A00F0B4813B
:10126000CD2A00F0B480CE2A00F0C980D12A2ED039
:10127000D22A34D0D32A3BD0D42A52D0D62A71D005
:10128000D72A6FD0D82A75D0D92A73D0DA2A79D044
:10129000DB2A00F02881DC2A00F02C81F12A00F002
:1012A0008480F22A00F0C380F52A00F0D880F72A63
:1012B00000F0EB80FA2A00F0E983FB2A00F0D983E2
:1012C000FD2A00F0D780FE2A00F0E283C4E000216E
:1012D000284601F08EFCFFF70BFE0120BDE0012146
:1012E000284601F086FC012005F000FD0120B4E055
:1012F0000020A872E87D002840F0C88342F21074F4
:1013000038460090034600222146082000F071FE76
:101310003B4601222146082000F0E2FE0120E8754C
:10132000B4E30120A87200206873E87A002840F036
:10133000AD83E87D002811D042F210743B460022B4
:101340002146082000F0CCFE3846009003460122DA
:101350002146082000F04DFE0020E875012005F030
:10136000C5FC93E3D62901D1012000E00020E872FA
:10137000012072E0D92901D1012000E0002028736A
:1013800001206AE0DFF82007056AB5F95600012858
:10139000C0F27C830020A5F856003B4602464FF47D
:1013A0007A71082000F09CFE70E30021032980F28E
:1013B0006D830A180B5D82F87430022905D10A5D2D
:1013C00080F877200A5D80F87820491CEEE7002637
:1013D000032E80F25B83DFF8D006456805EB4605F7
:1013E000022204EB460105F1580001F0C1F9B5F9FC
:1013F0005810DFF8BC0601F06BFA761CE8E700260F
:10140000032E80F24383DFF8A006056805EB46054E
:10141000022204EB460105F1580001F0A9F9B5F9E3
:101420005810DFF8900601F053FA761CE8E72969B6
:10143000090640F12B832178A0F87A106178A0F892
:101440007C1002212046DFF86026D269126E926974
:101450009047002840F01A83002019B0F0BD032205
:1014600021460120DFF840369B681B6E1B6A9847B7
:101470000120F2E7122221460220DFF82C369B6879
:101480001B6E1B6A98470120E7E7DFF81C06856999
:10149000286E806880470028DED001222146052082
:1014A0002B6E1B6A9847D7E7204605F01DF9D3E756
:1014B000204605F05CF920780028CDD005F07AF9B7
:1014C000CAE7207805F07CF9C6E705F064F84FF428
:1014D0008051002001F0C1FB207805F083F905F070
:1014E000CBF80120B9E7D6F80510DFF8CC0501F0FC
:1014F000EFF9B1E7D6F80510DFF8C00501F0E8F91B
:10150000AAE794F900500422611C0BA801F030F9FD
:10151000B6F80100062806DB0422611D0CA801F0C4
:1015200027F994F9097000970C9B00220B99284623
:1015300000F05FFD20708FE794F900500422611CD9
:101540000BA801F015F900231A460B99284600F064
:10155000C7FD82E794F900500422611C0BA801F03A
:1015600007F9B6F80100062806DB0422611D0CA865
:1015700001F0FEF894F9097000970C9B00220B997A
:10158000284600F011FE207066E720780146032906
:1015900002D01A290DD010E061788DF80A100129C7
:1015A00040F07482A0788DF80B0040B200F05EFF2E
:1015B0006CE2617800F066FF68E294F9011040B2D5
:1015C00002F061F9C0B248E7207801460E3908D030
:1015D000091F03291CD9091F37D0491E00F09F801D
:1015E000E5E00E208DF8080060788DF80A00A178FB
:1015F0008DF80B10E2788DF80C200023ADF80D303B
:1016000052B249B240B201F040FB00F026FFCEE0FA
:101610008DF80800122802D161788DF80A1013287D
:1016200002D161788DF80B10142802D161788DF801
:101630000C10152802D160788DF80A0062782178A4
:101640000FF2804001F044F9B1E06078A17809041C
:1016500001EB0060E17800EB012021794018CDF822
:101660000A006079A179090401EB0060E17900EBDF
:101670000120217A4018CDF80E00607AA17A090481
:1016800001EB0060E17A00EB0120217B4018CDF8EE
:101690001200607B8DF81600A17B8DF81710E27B9D
:1016A0008DF81820237C8DF819300FF2284001F0B6
:1016B0000FF9607C8DF81A00A07CE17C11EB002012
:1016C00000B20146ADF81B10217D00EB0120617DC9
:1016D0004018ADF81D00A07D8DF81F00DDF80A0050
:1016E000002807D1DDF80E00002803D1DDF8120034
:1016F000002809D00DF10A0184B06846162205F0D1
:10170000B1FB0FBC01F006FB0DF10A0184B0684685
:10171000162205F0A7FB0FBC00F0BAFE47E0617887
:101720008DF809101D2942D1A2780FF2C03001F0C6
:10173000CFF8A0788DF81300A07801280ED1E078BA
:10174000217911EB0021ADF80A1089B20A469DF803
:1017500009100FF2AC3001F0BBF828E002280BD1E1
:10176000E078217911EB0021ADF80C1089B20FF26D
:10177000A03001F0ADF81AE003280BD1E078217910
:1017800011EB0021ADF8141089B20FF2903001F086
:101790009FF80CE004280AD1E078217911EB0021B0
:1017A000ADF8161089B20FF2803001F091F80620E2
:1017B0008DF8340020780E900DF13D0002A9212211
:1017C00005F050FB0B208DF83C000020ADF85E00CA
:1017D0000DA800F083FEC0B23FE694F9000001F0CE
:1017E00040FB012840F0ED8020780146032918D005
:1017F000062955D009291BD00C2935D00D2941D0F7
:10180000192971D01A2958D01B2900F082801C296F
:1018100000F0BD801D2900F095801E2900F0BE80DB
:10182000CAE00322611C0DF10A0000F0A1FFC8E02C
:101830000722611C0DF10A0000F09AFFBDF80A00B2
:10184000010A41EA0020ADF80A00BDF80C00010AC7
:1018500041EA0020ADF80C00BDF80E00010A41EA93
:101860000020ADF80E00ACE00322611C0DF10A006F
:1018700000F07EFFBDF80B00010A41EA0020ADF840
:101880000B009EE00322611C0DF10A0000F070FFC6
:10189000BDF80B00010A41EA0020ADF80B0090E012
:1018A0000122611C0DF10A0000F062FF9DF80A1090
:1018B0000FF2802001F00CF883E00822611C0DF18A
:1018C0000A0000F055FFBDF80D00010A41EA0020B2
:1018D000ADF80D0000239DF911209DF910109DF920
:1018E0000F0001F0D2F96CE00622611C0DF10A0034
:1018F00000F03EFFBDF80A00010A41EA0020ADF801
:101900000A00BDF80E00010A41EA0020ADF80E0001
:1019100057E00422611C0DF10A0000F029FFBDF818
:101920000A00010A41EA0020ADF80A00BDF80C00E7
:10193000010A41EA0020ADF80C000FF2042000F08B
:10194000C7FF3EE00922611C0DF10A0000F010FF04
:10195000BDF80A00010A41EA0020ADF80A00BDF80E
:101960000C00010A41EA0020ADF80C00BDF80E00A1
:10197000010A41EA0020ADF80E0000239DF9122073
:101980009DF911109DF9100001F07FF919E01F2257
:10199000611C0DF10A0000F0EBFE12E00322611C55
:1019A0000DF10A0000F0E4FEBDF80B00010A41EA67
:1019B0000020ADF80B0004E08DF8080060788DF889
:1019C000090020780146052906D13D480121017012
:1019D000687A00280DD159E018290AD18DF808003D
:1019E00060788DF80900A0788DF80A00E0788DF80D
:1019F0000B0000208DF8340020780E900DF13D0092
:101A000002A9212205F02EFA0B208DF83C000020BF
:101A1000ADF85E000DA800F061FDC0B21DE52078B4
:101A2000052804D1264800210170012015E51A2857
:101A30000CD10522611C0DF10A0000F099FEBDF8E1
:101A40000D00010A41EA0020ADF80D0001208DF8DB
:101A5000340020780E900DF13D0002A9212205F0FE
:101A600001FA0B208DF83C000DA800F037FDC0B244
:101A7000F3E42078002802D0052805D006E00FF214
:101A8000CC0005F0DEFB01E0FFF732FA0120E4E4D0
:101A900004F10802211D204603F0E2F90120DCE4F4
:101AA0003436002048370020000000205466002013
:101AB000A0A30208ACA30208B8A30208C4A30208AA
:101AC0007EBE002050443A2053657425642025646E
:101AD0000000000050443A20504F5354696D652077
:101AE00025642025642025640000000050443A202D
:101AF0004441544154595045202564202564000038
:101B000050443A205354502025642C202564000072
:101B100050443A20575450202564000050443A2045
:101B2000535220256400000050443A205352412073
:101B30002564000050443A205343202564000000EF
:101B400050443A20535320414444000041505F52D6
:101B500045515545535400000048704718AB0020CC
:101B600080B5FFF7F9FFDFF8A4170860012002BD78
:101B700080B503F01CFADFF89817D1E90023801A2A
:101B800002BDF8B50446A069E1684518B5F9000042
:101B9000B5F90270B5F90460B4F85810411A2980FB
:101BA000B4F85A10791A6980B4F85C10711AA980D7
:101BB000B5F90010C913B1EBE03F13D0B4F95810D8
:101BC000C913B1EBE03F0DD00FF2587000F080FE6A
:101BD000B5F90000012802DBDFF8380701E047F61D
:101BE000FF702880B5F90210C913B1EBE73F13D09D
:101BF000B4F95A10C913B1EBE73F0DD00FF23070B2
:101C000000F066FEB5F90200012802DBDFF80407E8
:101C100001E047F6FF706880B5F90410C913B1EB15
:101C2000E63F13D0B4F95C10C913B1EBE63F0DD019
:101C30000FF2087000F04CFEB5F90400012802DB39
:101C4000DFF8D00601E047F6FF70A88094F908009D
:101C5000002804D1002000E0401C0328FCDBF1BD7B
:101C60000000000070B584B0044600A800210A46B8
:101C70000B460EC0A069E1684518164694F90800A5
:101C8000012802D12046FFF77CFF94F908000146A5
:101C9000012902D9C91E40F08980002801D14FF6E0
:101CA000FF76DFF868160968411891F87410491E2C
:101CB00006295ED8DFE801F004101D2936424F00E6
:101CC000B5F90210009100A9B5F90020B21A4A60D6
:101CD000B5F904208A6056E0B5F90010711A009138
:101CE00000A9B5F90220B21A4A60B5F904208A6049
:101CF00049E0B5F90210711A009100A9B5F9002068
:101D00004A60B5F904208A603DE0B5F90010711A07
:101D1000009100A9B5F902204A60B5F90420B21A71
:101D20008A6030E0B5F90210009100A9B5F90020F1
:101D30004A60B5F90420B21A8A6024E0B5F90010AF
:101D4000009100A9B5F90220B21A4A60B5F9042041
:101D5000B21A8A6017E0B5F90210711A009100A951
:101D6000B5F90020B21A4A60B5F90420B21A8A60A7
:101D700009E0B5F90010009100A9B5F902204A6008
:101D8000B5F904208A6001280AD1002006E051F844
:101D9000202002F30F0241F82020401C0328F6DB2C
:101DA00000982880486868808868A88094F90800AE
:101DB000002802D12046FFF7E4FE012004B070BDE8
:101DC00070B52DED028B82B08169C2688A1890F9D6
:101DD000081008460A2800F2C280DFE800F0062B4F
:101DE0009DC0C08BC0C065AAB800B2F90240B2F96C
:101DF0000450DFF8180500689FEDB80AB2F900102A
:101E000000EE901AF8EEE00A60EE800AC0ED000ADB
:101E100000EE904AF8EEE00A60EE800AC0ED010A9A
:101E200000EE905AF8EEE00A20EE800A001D80EDE8
:101E3000010A98E0B2F90240B2F90450DFF8CC048C
:101E40000068061D9FEDD58BB2F9000000EE100A68
:101E5000B8EEC00A10EE100A05F054FB53EC182B34
:101E600005F078FB05F048FCB06000EE104AB8EED3
:101E7000C00A10EE100A05F045FB53EC182B05F0D4
:101E800069FB05F039FCF06000EE105AB8EEC00AAC
:101E900010EE100A05F036FB53EC182B05F05AFB38
:101EA00005F02AFC30615EE00020ADF80200ADF8DC
:101EB00000001088ADF802005088ADF80000DFF88F
:101EC0004C040068061D9FEDB70ABDF9020000EE44
:101ED000900AF8EEE00A60EE800AC6ED0E0ABDF93F
:101EE000000000EE900AF8EEE00A20EE800A86ED8F
:101EF0000F0A38E000200190106801909DED010A62
:101F0000B8EEC00ADFEDA70A20EE200ADFF8FC03D6
:101F1000006880ED0C0A26E0DFF8F0030068118805
:101F2000A0F84A1000F24A005188418091888180CF
:101F300019E0DFF8D803006800F24A001188C18078
:101F40005188018191884181D18881810BE0DFF83E
:101F5000BC03006892F9001080F8581003E00FF2FB
:101F6000E83000F0B5FC012002B0BDEC028B70BD82
:101F700070B50D46DFF8A01351F820400026207FF1
:101F8000002801D1304670BD607A002803D0206E51
:101F90008068804706462846216EC96988470546FD
:101FA000002E02D0206E40688047284670BD9B07F7
:101FB00001D542F2107292FBF1F190F822205143C8
:101FC0000069814201DA0120704700207047002932
:101FD00001D48164C164002A03D4910701D580F83B
:101FE00020207047002903D4002181644161816170
:101FF00070472DE9F2418BB0044615461946002082
:10200000ADF82A0001900A208DF8080000208DF814
:1020100009008DF80A002646BF4850F826704FF098
:102020000208387F002831D09DF94820002A08D4C2
:10203000D00706D513460A460B993846FFF7B7FF77
:1020400048E03846FFF7C3FFA4F10C00062805D28C
:102050002146C9B20BA83A6E92699047787A002857
:102060001CD1294649B238467A6E1268904700283A
:102070000ED0386E40688047002805D14146A1F156
:102080000108C9B20029F4D1002801D1002021E0C3
:10209000294649B238467A6E52689047787A401C91
:1020A00078722A4652B20B9938467B6E1B69984764
:1020B00000F0C0F8072E0CD1002D0AD100208DF8B9
:1020C0000000112001900A208DF8080000A800F0FF
:1020D00005FA01200CB0BDE8F081000060F61C3A62
:1020E0002DE9F0418CB006460C46154619460020F5
:1020F000ADF82A0001900A208DF8080000208DF824
:1021000009008DF80A00844850F826704FF0020844
:10211000387F002801D100203CE03846FFF762FFFD
:10212000787A012818D1294649B238467A6E9268E1
:10213000904700280AD0386E80688047002805D173
:102140004046A0F10108C0B20028F4D1294649B2A6
:1021500038467A6ED2689047787A002801D0401EBF
:1021600078722A4652B2214638467B6E5B699847A0
:1021700000F060F8072E0CD1002D0AD101208DF857
:102180000000112001900A208DF8080000A800F03E
:10219000A5F901200CB0BDE8F081000089AD84FAFA
:1021A0000A74313F0AD7233C2DE9F04104460D461D
:1021B00016461946584850F82470387F002815D024
:1021C0009DF91820002A08D4D00706D513460A46E0
:1021D00029463846BDE8F041E9E606EB460007EB44
:1021E0008008D8F838008068002801D500201FE05A
:1021F0003846FFF7ECFE324652B2D8F83800816814
:1022000038467B6E5B699847324652B2294638465B
:102210007B6E1B699847A4F10C00062805D229465D
:10222000204605F01FFD012002E000F003F8012028
:10223000BDE8F08170B56FF000452C463748016865
:1022400004E08A68A24200DA144609688142F8D1A3
:10225000334E3078401C307001F0A5FC7078401C83
:102260007070AC4200D1002428480168CC660A6F27
:10227000204682420AD0002801D0002A03D10867F4
:1022800000F002FB02E0012005F0C9FD7078401E5D
:102290007070C0B2002801D101F07FFC01F030FD68
:1022A000012070BD38B505461D4C2078401C2070BB
:1022B00001F079FC6078401C607014480068056784
:1022C0001648016805E08A68B2FBF5F26A43CA6005
:1022D00009688142F7D16078401E6070C0B2002862
:1022E00001D101F05AFCBDE8314001F009BD0B49B4
:1022F0000A6808E01369012B01DAD36813611369D6
:102300001B1A136112688A42F4D1704710BE002074
:10231000B0BD00200080FFFF000000206000002012
:102320003436002058206973206F766572000000F3
:1023300059206973206F7665720000005A20697316
:10234000206F766572000000554353542825642998
:102350004E53000060487047F8B50C4616460125FC
:1023600000282BD106EB86005B4901EBC007F8681B
:10237000E040C00708D52346FA6831460FF2D8205E
:1023800000F0A6FA0220F2BD4FF0FF3000900346A5
:102390002A4679682046FFF72CFE00280CD02346F9
:1023A000FA6831460FF2C02000F092FAF868294628
:1023B000A1400843F8602CE00220F2BD012828D19A
:1023C00006EB8600444901EBC007F868E040C0070F
:1023D00008D42346FA6831460FF29C2000F078FAC0
:1023E000032516E04FF0FF332A4679682046FFF7B1
:1023F00077FE002807D02346FA6831460FF288207E
:1024000000F066FA00E00325F8680121A140884346
:10241000F8602846F2BD01F042BA02B58CB0002146
:10242000ADF82A1001910A218DF8081000218DF8CD
:1024300009108DF80A1005218DF800100190042272
:102440000CA90DF1090000F093F90020ADF82A0065
:1024500000A800F043F80DB000BD80B505F09EFF68
:102460000FF23420BDE8024000F032BA10B5044645
:10247000C0B205F09EFF21460FF22820BDE81040B3
:1024800000F026BA1A2802D1084607F0C7B87047EC
:102490000FB480B5002805D10846002802D11046A7
:1024A000002804D007F067FBC046C04601E007F0F3
:1024B0004BFB01BC5DF814FB0022242809D200EB81
:1024C0008003054800EBC300C068C840C00700D5C2
:1024D0000122104670470000F06C002030B587B034
:1024E0000446012594F90000062800F2A180DFE8E7
:1024F00000F00428445F76979B0004F1090182B044
:102500006846212204F0AEFC0CBC94F90810606807
:1025100040B200F01AFE02280AD1606800B200F052
:10252000D9FF002561680FF2881000F0D1F985E02D
:10253000032840F0838061680FF27C1000F0C8F936
:102540007CE060681A280AD104F1090001F019FA48
:10255000637B227BE17A0FF2681000F0B9F994F9FD
:102560000810606840B200F0D5FE032866D16168AB
:102570000FF2641000F0ACF960E0618D00A800F08B
:10258000C3FF9DF9040002280AD1009800B200F0B0
:10259000A1FF002500990FF2481000F099F94DE0D5
:1025A00003284BD100990FF2401000F091F945E05B
:1025B00007F010FC02280AD1606800B200F08AFF20
:1025C000002561680FF2281000F082F936E0032838
:1025D00034D161680FF2201000F07AF92EE06068C3
:1025E00005280CD1284607F0CEFC02280DD0032880
:1025F00024D161680FF2101000F06AF91EE0022881
:102600001CD107F0B1FD0228F1D1606800B200F0E2
:1026100061FF002561680FF2E80000F059F90DE054
:10262000204600F0D6FF09E0204601F063F905E0FE
:1026300061680FF2DC0000F04BF90025284607B076
:1026400030BD012070470FB4022004B07047012054
:102650007047002070477047534D41432025642048
:102660002564202564000000534D41202564202569
:102670006420256400000000534D5243202564204F
:102680002564202564000000534D52202564202538
:1026900064202564000000005044205365745354A6
:1026A0000000000050442055543A202564000000EA
:1026B000414C4F4620256400414C43462025640090
:1026C0004F4A4820454C20307825782030782578AE
:1026D0002030782578000000524C434620256400C5
:1026E000504C4F4620256400504C43462025640042
:1026F00050414F4620256400504143462025640048
:1027000050504F4620256400505043462025640019
:102710004558204C4D454C202564000030B5134DE4
:10272000044681B0287820B9281D07F09BFD0120C0
:102730002870281D07F0B0FD204608F05DFC044617
:10274000281D07F0CAFD204601B030BD30B5074D49
:10275000044681B0281D07F09FFD204608F0A6FD25
:10276000281D01B0BDE8304007F0B7BDF0BB002028
:1027700010B5044604F076FB204610BD30B5044683
:102780000F480D46017881B0491C017001F00BFA29
:10279000A068E168884209D13821204609F014F880
:1027A00001F001FAA068E1688842F5D02946204688
:1027B00009F028F801B0BDE8304001F0A1BA00BF2F
:1027C0003436002010B5DFF8D8454FF48E72002162
:1027D000204601F0FFF9204610BDDFF8C405704720
:1027E00010B5FFF7EFFF044600231A4611460846CE
:1027F00000F04BFAC046C04601F00EFB204600F048
:1028000018F801F051FD204600F0B1F9204600F023
:1028100014F8204600F018F800F072F900206072F9
:10282000A072E0722073012060730020E075012027
:1028300010BD0021C17101722BE010B5044601F0FA
:1028400092FB0120607110BD10B5044601F0F9FB48
:102850000120A07110BD38B50446012501F0A4FC8B
:10286000012804D12846E0700020A0700AE0022868
:1028700004D10020E0702846A07003E00020E07042
:10288000A0700546284632BD80B501F0D3FD012079
:1028900002BD10B50446E07901F0D6FE0121217099
:1028A00010BD70B504460025E679E171FFF7F1FF30
:1028B000002807D02046FFF7C0FF2046FFF7C4FFDF
:1028C000012503E0E6712046FFF7E3FF284670BDCF
:1028D0000EB470B5C1B0054600A84FF4807100F089
:1028E00091FAFFF77AFF044645AB2A464FF4807110
:1028F00000A808F0D5FF00A808F0F0FF451C00A8CC
:102900002818002100F8011CDFF898643078401C7A
:10291000307001F048F97078401C7070207E2818E3
:10292000FF2810DA207E002803D0207E00190A211B
:1029300001762A4600A9207E00191930FFF718FFFA
:10294000207E281820767078401E7070C0B2002853
:1029500001D101F022F901F0D3F941B070BC5DF86A
:1029600010FB0428DFF8400403D8DFF840140160AE
:102970007047DFF83C14016070472DE9F8430546C5
:102980000E4617464FF0020801F00DF9DFF8144427
:102990006078401C60709DF80000401E8DF80000BB
:1029A00017F8019B2846FFF7DCFF00AB4A46394683
:1029B000304601F071FE002809D06078401E60703A
:1029C000C0B2002801D101F0E8F8012015E05FFA5B
:1029D00088F8424629460FF2F430FFF779FF404667
:1029E000A0F101080028E0D16078401E6070C0B2FC
:1029F000002801D101F0D1F80020BDE8F2832DE9D3
:102A0000F04704460D4616461F46DFF8A88308988F
:102A100088F8000001F0C7F8DFF8889399F8010002
:102A2000401C89F801002046FFF79BFF4FF0020A87
:102A3000434632463946284601F0D8FE00280BD0DE
:102A400099F80100401E89F80100C0B2002801D1A8
:102A500001F0A3F8012017E05FFA8AFA52462146F6
:102A60000FF27430FFF734FF5046A0F1010A00283E
:102A7000DED199F80100401E89F80100C0B200289B
:102A800001D101F08AF80020BDE8F0872DE9F84374
:102A900005460E46174698464FF0020901F083F8A6
:102AA000C04C6078401C60702846FFF75AFF4246D1
:102AB0003946304601F08CFF002809D06078401E6E
:102AC0006070C0B2002801D101F067F8012015E064
:102AD0005FFA89F94A4629460FF20830FFF7F8FEF7
:102AE0004846A0F101090028E1D16078401E6070DD
:102AF000C0B2002801D101F050F80020BDE8F283F7
:102B000009F0D6BAF8B5044600273D46AA4E0DE0B6
:102B100039464F1EC9B200290AD1002804D12069C4
:102B20000121A9408843206100276D1C122D10DA75
:102B300056F82500006E006880470128E8D1216919
:102B40000122AA401143216156F8251001220A777B
:102B5000E3E72069032805D02069022802D0206914
:102B6000012803D1206940F480502061F1BD02F0BA
:102B700023B802F0A0B881B00022ADF80220ADF871
:102B80000020C079042808D0062809D008280AD0D7
:102B900009280BD00A280CD00EE04FF4C8600DE0D5
:102BA0004FF448600AE04FF4C85007E04FF4FA5081
:102BB00004E042F2107001E041F27070ADF80220C2
:102BC0000DE0BDF80020521CADF80020BDF800203B
:102BD0008242F6DBBDF80220521CADF80220BDF89F
:102BE00002208A4203D20022ADF80020EEE701B0B5
:102BF0007047417210B58CB0FDF7C6FA0446FFF776
:102C0000ECFD0021ADF82A1001910A218DF8081081
:102C100000218DF809108DF80A10407A00280DD097
:102C2000002C18D008468DF80000052001900B20DC
:102C30008DF8080000A8FFF751FC0CE0002C0AD02A
:102C400001208DF80000052001900B208DF8080070
:102C500000A8FFF743FC0CB010BD02F053B802F01F
:102C60005BB801210846F8E701210846F7E7022191
:102C70000120F2E702210120F1E702F057B810B578
:102C80000446FFF7AAFD447510BD10B44B4C2070EC
:102C9000002801D5183020706170A270A4F80330AC
:102CA00010BC704710B504002FD0FDF720FB43493E
:102CB0008A68002A00D0841AB1F80320A218A1F86B
:102CC000032012B2B2F57A7F06DBA2F57A72A1F880
:102CD00003208A78521C8A7091F902203C2A04DB76
:102CE0003C3A8A704A78521C4A7091F901203C2A79
:102CF00004DB3C3A4A700A78521C0A7091F90020B1
:102D0000182A01DB00220A70886010BD2B490522B9
:102D100004F0A8B80FB470B51546294E284609F03E
:102D200093FA0022274B09F09DFA306171610498F3
:102D300009F08AFA0022244B09F094FA306071609D
:102D4000059C204609F080FA00221F4B09F08AFA00
:102D5000B060F1609DF81C0030769DF81D00707623
:102D60009DF81E00B0769DF81F00F0769DF82000BB
:102D70003077BDF82100A6F81D00BDF82300A6F8A5
:102D80001F002B46224604990FF26400FFF7A0FDB6
:102D900070BC5DF814FB0A49222204F063B80000FD
:102DA00020A1002034360020383700200054004095
:102DB0000058004061BE002000000020F0BC002050
:102DC000FCB9002000408F4080842E4149574520A7
:102DD00025642025640000004952452025642025F3
:102DE0006400000049524F452025642025640000FE
:102DF00050443A20536574506F7320256420256435
:102E000020256400002209F051BB50F8041B61B179
:102E100050F8042BD30744BFA9F101039A180023EB
:102E200042F8043B091FFAD1EFE770474FF0FF313A
:102E3000801E012812D9C01E04280FD9C01F0528E2
:102E40000CD909380AD0801E022807D9C01E03D029
:102E5000401E082802D902E00A2100E001210846AC
:102E6000704780B501460020C91E0DD0C91E0BD089
:102E7000C91E09D0C91E012906D90D39032903D954
:102E8000091F03D0491E07D1012002BD1D210FF2E9
:102E90000C00FFF71DFD012002BD000050443A2048
:102EA0004C4C53202564000038B504464FF0FF35E4
:102EB000FFF750FA232C2DD8DFE804F02B2C172B2A
:102EC0002B172B2B17172C2C141712122B2B2C2CE7
:102ED0002C2B2C2B142B172B172B2B191C202428B5
:102EE000C82517E04FF47A7514E0142512E0D0F8E5
:102EF000DC540FE000F2DC40856A0BE000F2DC40BD
:102F0000056D07E000F2DC40856F03E0D0F87C55EA
:102F100000E04225284632BD38B5DFF88C49FEF77F
:102F20001BFEE06209F0DCFAFFF714FA20630025CB
:102F300008E01D2D03D1DFF87429C1F8AC24406AE4
:102F400080476D1C242D80F2FE80216B05EB8500EF
:102F5000C00000224254401842704FF0FF324260DD
:102F600000220272C2604272032D04D17431DFF874
:102F700040298A62E3E71C2D00F0E180022D03D195
:102F8000DFF8082A4A67DAE7002D67D0042D04D15C
:102F90007431DFF8042A0A65D1E7052D04D17431B4
:102FA000DFF8F8298A67CAE7062D04D1DFF8F0298F
:102FB000C1F81421C3E7072D05D101F58A71DFF8A7
:102FC000E4298A62BBE7082D05D101F58A71DFF893
:102FD000D8290A65B3E7092D05D101F58A71DFF813
:102FE000CC298A67ABE70A2D38D00B2D36D0012DBE
:102FF00034D00C2D04D1DFF8B829C1F804229EE7A3
:103000000D2D05D101F50171DFF8A8298A6296E737
:103010000E2D05D101F50171DFF89C290A658EE7B7
:103020000F2D05D101F50171DFF890298A6786E738
:10303000102D04D1DFF88829C1F8A4227FE7112DD3
:1030400004D1DFF88029C1F8CC2278E7122D05D011
:10305000142D03D0132D01D0162D10D1DFF86819CF
:103060000161DFF868194161DFF864298261DFF8E6
:103070006429C261DFF86029026241625FE7152DB1
:1030800004D1DFF85829C1F86C2358E7172D05D172
:1030900001F55B71DFF848290A6550E7182D05D165
:1030A00001F55B71DFF83C298A6748E71A2D05D1E5
:1030B00001F20C41DFF830298A6240E71E2D05D16C
:1030C00001F2AC41DFF824298A6238E7192D04D1D6
:1030D000DFF81C29C1F80C2431E71F2D05D101F2BE
:1030E000AC41DFF810290A6529E7202D05D101F24E
:1030F000AC41DFF804298A6721E7212D04D1DFF8EC
:10310000FC28C1F84C251AE7222D05D101F24C51BB
:10311000DFF8EC288A6212E7232D05D101F24C5129
:10312000DFF8E0280A650AE71B2D05D101F20C4102
:10313000DFF8D4280A6502E71C2D7FF4FAAEDFF829
:10314000CC184162FBE6012032BD0CB42DE9F047FA
:1031500086B005460F4601242E461A2E48D006EBAF
:1031600086004FEAC008DFF840970B2F20D1D9F82E
:10317000300008EB000A9AF80100002818D0284611
:10318000FFF754FE012813DB2846FFF74FFE9AF89D
:10319000011081420CDB284600F066F90446D9F89C
:1031A00030004044002141700FF66C00FFF790FBA7
:1031B000D9F8300018F8001000292AD108EB0001D6
:1031C0004A78002A25D1002208F8002010464870CD
:1031D0000EA983B06846242203F054FE0EBC284694
:1031E00000F060F802280FD0032812D1032410E069
:1031F0000EA983B06846242203F044FE0EBC284684
:1032000000F050F8022801D1022046E0032800D146
:1032100003240A2F0DD1DFF89096D9F8300006EB81
:1032200086014FEAC10818F80010491C08F8001080
:1032300017E00B2F15D1DFF87096032E07D1D9F8C0
:10324000300090F87900002801D104F0F4FF06EB7B
:1032500086004FEAC008D9F8300040444178491C44
:103260004170DFF84496D9F83000D9F82C1006EBFD
:1032700086024FEAC208D1E91823CDE90223B1F84A
:103280005C10009108EB00014B7818F800203146E3
:103290000FF28C70FFF71CFB204606B0BDE8F0076C
:1032A0005DF80CFB0EB42DE9F04185B00546012414
:1032B000C0B2FFF7F9FDDFF8F06505EB8501326B71
:1032C00002EBC107786000203872F8600BA984B067
:1032D0006846242203F0D6FD0FBC3F69B847022898
:1032E00001D1022011E0032801D103240CE0D6F81B
:1032F0002C80D8E91867204600212A4609F098F961
:1033000030433943C8E91801204605B0BDE8F00153
:103310005DF810FB2DE9FF4704460D4601262746C0
:1033200007EB87004FEAC008DFF87C95D9F830003A
:103330001A2F56D008EB000A9AF80100022814DB75
:103340002046FFF773FD01280FDB2046FFF76EFDD7
:103350009AF80110814208DB2046FFF767FD8AF8E2
:1033600001000FF2D060FFF7B3FAD9F8300018F877
:103370000010002904D108EB00025278002A5AD02C
:103380000A2D09D1002903D0491E08F8001017E0C2
:10339000002108F8001013E00B2D11D108EB0001FB
:1033A0004A78002A02D0521E4A7001E000224A7078
:1033B000032F05D190F87900002801D104F04AFFCD
:1033C000D9F8300018F80010002934D14044407872
:1033D000002830D1204600F047F803282BD10326DF
:1033E00029E018F80010002904D108EB00025278F7
:1033F000002A20D00A2D09D1002903D0491E08F83F
:10340000001012E0002108F800100EE00B2D0CD186
:1034100008EB000A9AF80100002803D0401E8AF841
:10342000010002E000208AF80100204600F01CF8AC
:10343000032800D10326D9F83000D9F82C10D1E99F
:103440001823CDE90223B1F85C10009108EB0001CC
:103450004B7818F8002039460FF2E050FFF738FAA1
:10346000304604B0BDE8F0872DE9F041074601265B
:1034700007EB8700C500DFF83044206B281840694F
:103480008047032800D10326384640B200F080F977
:10349000032800D10326206B295C002917D12818A6
:1034A0004178002913D14FF0FF31416000210172B2
:1034B000C160D4F82C80D8E9184501203A4609F0BB
:1034C000B7F824EA000025EA0101C8E918013046EE
:1034D000BDE8F08138B5044604EB8400C000DFF895
:1034E000C853296B002242544018114641702046AF
:1034F000FFF7BAFFE86AD0E9182321460FF25050CF
:10350000FFF7E6F9012032BD2DE9F041AEB00446E7
:103510000E46B6B201208DF85400DFF88C5316A881
:10352000E96A5C2203F0AEFC139516A984B06846E4
:103530005C2203F0A7FC0FBC00F0BCF900270BE0F5
:10354000032803D1149703208DF85400286B4044BE
:10355000002101727F1C7FB2242F2ADAEA6AD2E9A5
:1035600018013A4600F0A8FA00F0010011F000013D
:1035700001D10028EED007EB87004FEAC008286B86
:10358000404441680029E5D4027A521C0272D2B24A
:10359000724389B28A42DDDB806980470228CFD13D
:1035A000149702208DF85400DDE91401C4E90001EC
:1035B00003E0DDE91401C4E900012EB0BDE8F081AB
:1035C00000210A3842F20772904200D201210846D7
:1035D00070472DE9F04383B0044600200190042297
:1035E00004F1090101A8FFF7C3F86168DFF8B862C8
:1035F000376B282505FB01704068019A904204D181
:103600000FF25840FFF764F968E01046FFF7D8FF63
:10361000002809D16168019B05FB017042680FF227
:103620004840FFF755F959E0DFF8E4733868D0F8FF
:10363000008025E090F908906068316B05FB001070
:10364000C06820FA09F0C00717D54FF0FF3000908E
:103650000346012201994846FEF7CBFC40B2002800
:103660000BD1616801980090306B05FB0100436845
:103670004A460FF20840FFF72BF94046D0F8008089
:10368000B842D7D13868D0F800801FE090F9089090
:10369000C86820FA09F0C00715D54FF0FF330122A2
:1036A00049684846FEF71CFD40B200280BD161680E
:1036B00001980090306B05FB010043684A460FF209
:1036C000D430FFF705F94046D0F800806168326BCE
:1036D00005FB0121B842D9D101984860BDE8F783C4
:1036E0002DE9F8438146002425466F4F21E005EB84
:1036F0008500C600386B06EB0008002088F809003A
:10370000FA6AD2E918012A4600F0D6F900F0010061
:1037100011F0000101D100280AD04846D8F81C1049
:103720008847002804D0386B3018012141720C46BC
:103730006D1C242DDBDB2046BDE8F2835A48C16AAC
:10374000D1E91823002B01D1002A0DD0002107E078
:1037500002EB8203026B02EBC30200235372491C8B
:1037600049B20A46242AF3DB704700B502464E48A8
:10377000C36AD3E9180100F09FF900F0010011F0CD
:10378000000101D1002801D0012000BD084600BD84
:103790002DE9F0478146012409EB8900C500424E1E
:1037A000306B2818C068002829D0DFF864723868A8
:1037B000D0F8008003E003244046D0F80080B842EF
:1037C0001DD090F908A0306B2818C168012202FAB8
:1037D0000AF2114021FA0AF149B20129ECD14FF065
:1037E000FF33012241685046FEF77AFC0028E2D000
:1037F000524649460FF2B420FFF76AF8DCE720464C
:10380000BDE8F08710B58CB004460020ADF82A0062
:1038100001900A208DF8080000208DF809008DF82D
:103820000A00FEF799F90020ADF82A00600719D5C3
:103830000520FFF79AFF002807D004208DF800002C
:103840000520019000A8FEF749FE0220FFF78DFF3A
:10385000002807D004208DF800000220019000A865
:10386000FEF73CFEE0060CD50820FFF77EFF00289F
:1038700007D003208DF800000820019000A8FEF773
:103880002DFE0CB010BD02460020092A00D0704762
:1038900080B5012902D108F083FF012002BD024951
:1038A0002C2203F0EFBA000078B90020C7CC000842
:1038B0001D8000080FB417980099016001994160BC
:1038C000029981600399C160049901610599416180
:1038D000BDF84A100183BDF84C104183BDF84E106D
:1038E00081830C9901620F9941621099816204B041
:1038F000704700004168122903D1C17A002004F00A
:1039000056BD132903D1017B012004F050BD1429B9
:1039100003D1417B022004F04ABD152902D1C07AAF
:1039200004F056BD17292BD1817A1B2902D01D29FD
:103930000DD07047C17B012903D1B0F80B0006F010
:1039400007B902291CD1B0F80D0006F0FFB8017DBF
:10395000012903D1B0F80B0009F0ECB9022903D119
:10396000B0F80D0009F0DAB9042903D1B0F8170056
:1039700009F0ECB9032903D1B0F8150009F0F2B948
:103980007047244908607047000000003BA1000810
:103990002048006870470000856A0008239F0008DF
:1039A000BB8A0208CD9D0208399D0008EFC60008B9
:1039B000796D000869890208E57D0208AD93020867
:1039C0003B9A0208C9A002084726000843260008BF
:1039D0004F2600085326000857260008E59E0208D7
:1039E000FD9F0208899202084B940008C5860208D0
:1039F000C9970208B9040108CBB501081F91020854
:103A00008FDE010815060108C99A0008859602088C
:103A1000BC07002014BE0020414C20455800000087
:103A2000414C2564202564202564202564202564DC
:103A300000000000524C204558000000524C256404
:103A400020256420256420256420256400000000D2
:103A50005445524D20256420256400004558204CD3
:103A60004D435231202564004558204C4D4352327D
:103A70002025642025642025640000004558204C42
:103A80004D4352332025642025642025642025647D
:103A9000000000004558204C4D435234202564203E
:103AA000256420256420256400000000534D524108
:103AB0002025642025640000D2B2203A22BF21FADA
:103AC00002F0002170472032D141D040484091405F
:103AD000D140484070478268521C8260426832B1CF
:103AE0000268531C036011704168491E41607047B1
:103AF00030488168002904BF08B008E0EFF309826C
:103B0000A2F12802036882E8F84F83685A6000F047
:103B1000A6F8816859B14A6892E8F84F036002F14B
:103B2000280282F3098813F47F4F36D07047224869
:103B300022490968401A80F308884FF08071C161FA
:103B40001F4981617FF0060E704701BC2046DFF8F7
:103B500074E000BDFEE71C48006818490968401A77
:103B6000203820F0070080F308884FF0000181F32F
:103B7000118862B600F00DF8FEE74FF0000181F306
:103B800011881249124A0A604FF0800181F31188AE
:103B900070470E490E4A0A6070474FF0000181F3EA
:103BA0001188704700BF4FF0800181F31188704782
:103BB00000BF00003436002068DE0020C8A50208DF
:103BC000A59B0208553B00080000000804ED00E03A
:103BD0000000001010B5044610460A460146204673
:103BE00009F048F9204610BD30B504460020A07108
:103BF000206A81B000F57A606062E16908001CBF4C
:103C000020468847FFF7C9FFE5681FE0FFF7CBFFB5
:103C1000206920B1687C2169497C88421DD3287CB9
:103C2000400710D5E868216A401A012806DA2846BC
:103C300000F082F8FFF7B7FF287C70B1E868616A8E
:103C4000411A48BF6062FFF7A8FF2D68002DDDD143
:103C500001B0BDE83040FFF7A6BF01B030BD70B580
:103C600004460020607001202070206938B303E012
:103C700028682061FFF791FFFFF795FF2569002D68
:103C80001CBF2E7C002E1CD070070ED5E868216A60
:103C9000411A012905DA284600F04EF8287C20B99F
:103CA0000DE0616A411A48BF606206F0FB0010280F
:103CB000DED1A86880684068007C0028D8D1FFF772
:103CC00072FFA07968B900206071206990B1206905
:103CD000007C002820690BD0806880684068A06064
:103CE0000CE02046FFF780FFA0790028F9D1EAE731
:103CF000A06003E0A0602070FFF74FFF204670BD7A
:103D000010B5444C2078401E2070C0B298B960684D
:103D100088B1FFF748FF606830B10120207020466D
:103D2000FFF72BFF002020706078002804BFBDE85B
:103D30001040FFF732BF10BD10B5816849B1354A58
:103D4000126AC2600A68496802B151600A600021C3
:103D50008160017C11F0030101741BD12D4C21699C
:103D600091B92061207838B9012020702046FFF7F2
:103D700004FF0020207001E001206071607848B9E4
:103D8000BDE81040FFF709BF4A7C437C9A42E8D364
:103D90008142E7D010BD30B51E4D04462978607CC5
:103DA00081B0491C297005F20C0100E011460A6837
:103DB00012B1537C9842F9DB22600C60207C40B940
:103DC000FFF7F1FE2046FFF7B7FF687808B9FFF765
:103DD000E4FE01B0BDE8304092E730B50D4C81B053
:103DE0002578681C20702046FFF7C7FE2570607894
:103DF00020B901B0BDE83040FFF7CFBE01B030BD03
:103E000000B581B009F06AF802480121017001B0E3
:103E100000BD0000343600207CB50121032009F0EC
:103E2000DBF8DFF8A84B204609F050F9DFF8845D95
:103E3000284609F04BF901208DF8040000208DF888
:103E4000050001208DF8060000208DF807000121F3
:103E500028460183C0460120009000A9284609F0A9
:103E600091F9022128460183C0460220009000A952
:103E7000284609F087F901208DF8040000208DF80C
:103E80000500ADF806004FF48056009600A92846BC
:103E900009F078F9314628464183C04601208DF863
:103EA000040000208DF8050001208DF80600002098
:103EB0008DF80700009600A9204609F063F9314605
:103EC00020464183C04604220621284609F0A8F96D
:103ED00004220721284609F0A3F902208DF80400E6
:103EE00001208DF805008DF8060000208DF80700F0
:103EF0004020009000A9284609F044F98020009055
:103F000000A9284609F03EF904220A21284609F0B2
:103F100087F909220321284609F082F902208DF849
:103F2000040001208DF805008DF8060000208DF8B2
:103F300007004FF48060009000A9284609F022F99C
:103F40000820009000A9284609F01CF9286820F0F4
:103F5000300040F010002860206820F0300040F071
:103F60001000206073BD2DE9FF4101214FF40010C6
:103F700009F03DF80121022009F02EF801214FF44B
:103F8000804009F03FF801214FF4001009F050F88B
:103F900000214FF4001009F04BF80020ADF80400A8
:103FA0004BF6FF74ADF806404FF48065ADF80A504B
:103FB0004FF480463046ADF80C000A20ADF80800FA
:103FC000DFF85C7C0097DFF85C8C00A9404609F0C4
:103FD0006AF90121404609F0C9F90A20ADF8080044
:103FE000009701214FF4800009F001F8012102201F
:103FF00008F0F2FF01214FF4800009F019F80021C8
:104000004FF4800009F014F80020ADF80400ADF87A
:104010000640ADF80A50ADF80C600A20ADF8080073
:104020000097DFF8044C00A9204609F03CF9012173
:10403000204609F09BF9DFF8C00CC0F80080BDE80D
:10404000FF812DE9F04192B001214FF4805008F03A
:10405000D9FF0121084608F0BFFF01214FF480007D
:1040600008F0BAFFDFF8644905221146204609F03E
:10407000D7F805220721204609F0D2F805220621AB
:10408000204609F0CDF805220421204609F0C8F8A1
:1040900002208DF8040001208DF805000020ADF805
:1040A00006002020009000A9204609F06BF880202F
:1040B000009000A9204609F065F84020009000A972
:1040C000204609F05FF81020009000A9204609F072
:1040D00059F8DFF8EC4B204609F0AAF9DFF8E45B69
:1040E0000020288068600120288100206881E86025
:1040F0000720288200206880DFF8006C304609F035
:1041000007FADFF8FC7B384609F002FA4FF48060CA
:10411000069000210D9103210E9100210F910A912B
:104120000890DFF8B40C03900846109009900790AF
:104130004FF400300C9008460B904FF0C068CDF85B
:104140000880402005900846049002A9304609F0F6
:1041500063FA00200B90CDF80880059005F114005B
:10416000049002A9384609F057FA002068802946D1
:10417000204609F08CF901220221204609F0B6F907
:1041800001221146204609F0B1F90121204609F02B
:10419000A1F90021304609F066FA0021384609F0FD
:1041A00062FA12B0BDE8F08110B588B001214FF07D
:1041B000805008F01CFF01214FF4802008F00CFF14
:1041C000012009F0B9FA0F2009F066FC044601202D
:1041D00008F0FFFE002008F0FCFE002C01D003F0E8
:1041E0007DF8012008F096FE412008F037FF0028F6
:1041F000FAD04FF4807008F0D6FE012008F0E6FEF9
:1042000009F0EDFA3F20069040F2FF1007900020E1
:10421000059005A809F09AFA0020029002A909F079
:10422000FFFA00208DF8070001208DF804008DF8BA
:1042300005008DF8060001A9002009F06AFB4FF483
:10424000800009F009FD4FF48000039000208DF8F4
:10425000100008208DF8110001208DF8120003A82D
:1042600009F0B8FC03208DF800000D208DF8010046
:1042700000208DF8020001208DF8030000A809F04D
:10428000F8FC032009F0B9FB4FF4804009F06FFC03
:104290004FF4800009F0E0FC01214FF4804009F068
:1042A0002CFC012008B010BD30B585B001210846B6
:1042B00008F092FE01214FF4804008F0A3FE002098
:1042C0008DF810008DF8130001200390DFF8FC56E4
:1042D00003A9284608F056FF4FF40064039403A98D
:1042E000284608F04FFF0420039003A9284608F051
:1042F00049FF0021084609F0F5FC0B21002009F0D8
:10430000F1FC0221002009F0EDFC00208DF80800EE
:1043100001208DF80A0001900C208DF8090001A8F9
:1043200009F058FC01940C208DF8090001A809F04F
:1043300051FC204609F090FC042001900C208DF8DF
:10434000090001A809F046FC042009F085FC28209A
:104350008DF800000F208DF8010000208DF802007C
:1043600001208DF8030000A809F083FC05B030BDE2
:1043700030B58DB0044601214FF4807008F042FE44
:1043800000A808F039FF0A20009003208DF80400EF
:1043900000208DF8070000A9DFF8300608F0F2FED3
:1043A00009F0B4FC02A809F0F6FC4FF48030039049
:1043B00002A809F0E2FC06A809F0D5FCDFF8545C7D
:1043C00006A9284609F0AFFC07230122214628460A
:1043D00009F0F2FC0121284609F031FD01212846AF
:1043E00009F0DFFC0DB030BD38B5DFF8284C2046B1
:1043F00009F020FD4FF47A750221204609F036FDC0
:10440000002803D12846451E0128F5DA2046BDE8DC
:10441000324009F01FBD80B50021DFF8F80B09F02C
:10442000C0FC00214FF48070BDE8044008F0EABDF4
:104430000000000038B5040039D0012009F07CF9F3
:10444000002009F0F4FA4FF40055042009F070FB45
:10445000012804D12846451E80B20028F5D100EE7F
:10446000104AB8EE400ADFED8A0A80EE800AF0EECC
:10447000000A20EE200ADFED870A80EE800ABDEEFA
:10448000C00A10EE100A401E80B209F0C6FA4FF4BE
:10449000804009F06CFB4FF4800009F0DDFB012047
:1044A00009F0C5FADFF88C0B0121416031BD012014
:1044B00009F042F90020BDE8324009F0B8BA000026
:1044C00030B4014601200023DFF86C2B1C469460B9
:1044D000946814F00C0FFBD10C460B2C55D8DFE878
:1044E00004F02054545406192031383F464D946846
:1044F00044F080049460DFF8444B4FF4C0652560BD
:10450000146824F080741460DFF8344BDFF8345BF7
:1045100025603BE00346DFF8284BDFF82C5B256085
:1045200034E094689460DFF8144B4FF4C065256064
:10453000146824F080741460DFF8044BDFF80C5B1F
:10454000256023E00223DFF8F84ADFF8045B2560EA
:104550001CE00323DFF8E84ADFF8F85A256015E08D
:104560000423DFF8DC4ADFF8F05A25600EE005236B
:10457000DFF8CC4ADFF8E45A256007E00623DFF8CD
:10458000C04ADFF8DC5A256000E01846002B4AD00C
:1045900003EBC3030FF62C341B1994689460146862
:1045A00024F080741460146824F0806414609C7893
:1045B0001D8844EA8514DD786D086D1E44EA0544C3
:1045C0001D7944EA05645460DC881D7A2D0745EAAC
:1045D0008414DFF8905A2C60146844F080741460DE
:1045E0001468A401FCD55B7943F4C063DFF84C4A3E
:1045F00023609368936093689360052904D1916860
:1046000041F09001916005E00A2903D1916841F4DD
:1046100080519160916841F002019160916801F0D0
:104620000C010829FAD1DFF8181A0968DFF8382ACE
:10463000914207D2DFF8341A0A6822F4404242F469
:1046400080420A6030BC70473AE710B5DFF8204A74
:104650000121206808F0C3FE206808F0F5FDBDE8E0
:10466000104080E430B40022838A008BDFF8004AD7
:10467000656843EA00400840000255EA1020606087
:104680000840884200D10122104630BC704700002B
:1046900000007A44000000472DE9F84F04460D461B
:1046A00016464FF420491F78DFF84C864FF400314E
:1046B000D8F8000008F09EFE002808D04846A0F177
:1046C00001090028F2D1FFF7C0FF00208CE0D8F8E4
:1046D000000001884FF6FF52114001800121D8F8F7
:1046E000000008F04FFE4FF4805AD1460020C8F871
:1046F0000400D8F800B0DFF87C195846FFF7B2FF85
:10470000002805D14846A0F101090028F1D163E055
:10471000D14600222146584608F04CFE0020C8F839
:104720000400D8F80040DFF850192046FFF79AFF40
:10473000002805D14846A0F101090028F1D14BE03D
:104740003146C9B220460182C046D1460020C8F891
:104750000400D8F80040DFF824192046FFF782FF54
:10476000002805D14846A0F101090028F1D133E025
:10477000012F15D1297820460182C046D14600205C
:10478000C8F80400DFF8F818D8F80000FFF76AFF4F
:10479000002823D14846A0F101090028F2D11BE0EE
:1047A0003846471EC0B2002818D015F8011BD8F8AB
:1047B00000000182C046D1460020C8F80400DFF89E
:1047C000C018D8F80000FFF74DFF0028E8D1484690
:1047D000A0F101090028F2D1002005E00121D8F85C
:1047E000000008F0DBFD0120BDE8F28F2DE9F54F58
:1047F00081B00D461E464FF420483778DFF8F84464
:104800004FF40031206808F0F5FD002808D040463C
:10481000A0F101080028F3D1FFF717FF0020D3E033
:10482000206801884FF6FF52114001800121206865
:1048300008F0A8FD4FF48059C84600206060DFF8FA
:1048400034A8D4F800B051465846FFF70BFF0028B3
:1048500005D14046A0F101080028F2D191E00022E4
:104860009DF80410584608F0A5FDC8460020606079
:10487000D4F800B0DFF800185846FFF7F3FE002820
:1048800005D14046A0F101080028F1D179E0BDF83A
:104890000810C9B258460182C046C846DFF8E4177E
:1048A000206808F0A7FD002805D14046A0F10108C6
:1048B0000028F3D165E00121206808F063FDC846B7
:1048C00000206060D4F800B051465846FFF7CAFE99
:1048D000002805D14046A0F101080028F2D150E09F
:1048E00001229DF80410584608F064FD022FC846C6
:1048F00039DADFF89417206808F07CFD002805D12C
:104900004046A0F101080028F3D13AE000212068D8
:1049100008F059FD2068018B012108F03FFDC846D1
:10492000DFF86817206808F065FD002805D14046CB
:10493000A0F101080028F3D123E02068008AC0B26A
:1049400028703078401E3070C8462068018889057C
:1049500005D54046A0F101080028F6D111E001215B
:1049600008F031FD2BE000206060DFF8241720689C
:10497000FFF778FE002806D14046A0F10108002884
:10498000F3D1002020E0012616E0012F0CD1012EEA
:104990000AD100263146206808F015FD2068818A7A
:1049A000018B012108F0FAFC2068818A490603D5B1
:1049B000008A05F8010B7F1EFFB2002FE5D101210F
:1049C000206808F000FD0120BDE8FE8F00000240D5
:1049D0002DE9F04707460D4616464FF42048C64CD1
:1049E0004FF40031206808F005FD002808D040464B
:1049F000A0F101080028F3D1FFF727FE00208DE089
:104A0000206801884FF6FF52114001800121206883
:104A100008F0B8FC4FF48059C84600206060D4F814
:104A200000A0DFF850165046FFF71CFE002805D105
:104A30004046A0F101080028F1D14CE0012239469E
:104A4000504608F0B7FC022EC84636DADFF83816B2
:104A5000206808F0CFFC002805D14046A0F10108ED
:104A60000028F3D137E00021206808F0ACFC206872
:104A7000018B012108F092FCC846DFF8101620686F
:104A800008F0B8FC002805D14046A0F10108002834
:104A9000F3D120E02068008AC0B22870C8462068A0
:104AA0000188890505D54046A0F101080028F6D106
:104AB00011E0012108F087FC2BE000206060DFF8A6
:104AC000D0152068FFF7CEFD002806D14046A0F1A2
:104AD00001080028F3D1002020E0012716E0012E74
:104AE0000CD1012F0AD100273946206808F06BFC51
:104AF0002068818A018B012108F050FC2068818A9E
:104B0000490603D5008A05F8010B761EF6B2002E81
:104B1000E5D10121206808F056FC0120BDE8F087AE
:104B2000DFF870050168082933D1DFF80C150A6831
:104B300042F080720A604268B2F1806F03D10A6865
:104B400042F080620A600A689201FCD58A6842F0ED
:104B500002028A608A6802F00C02082AFAD14268CE
:104B6000B2F1806F02D10A681201FCD5DFF8D014CF
:104B70000968DFF8F424914207D2DFF8F0140A68DC
:104B800022F4404242F480420A6000210160416008
:104B900070474168B1F1806F0AD1DFF89C140A6850
:104BA00042F080620A600A681201FCD5002141606F
:104BB0007047000000040240DFF8DC04016841F0A7
:104BC00080510160DFF8A40401688908890041F080
:104BD00001010160DFF85C040FF20501016070471C
:104BE00010B5DFF8B844208840F004002080DFF8DA
:104BF0004404416800290DD000214160DFF8A01471
:104C00000A6842F004020A600FF22101016000F01C
:104C10000DF800E030BF608840F00400608010BDF7
:104C2000801A0600005400400058004038B5DFF8F4
:104C30000804DFF86014826802F00C020A60006861
:104C400000F080604860DFF85444208840F00400A1
:104C50002080FDF7C2FD807A012803D1012008F0F1
:104C60006EFD02E0002008F06AFDDFF83454802178
:104C7000134808F045FC00280BD1286840F00400D8
:104C8000286030BF286820F004002860FFF748FF44
:104C90000CE0608840F004006080286820F0040088
:104CA000286030BF286840F004002860608840F029
:104CB0000400608031BDDFF87C030068004700001D
:104CC00000300140D8B90020DFF8D813012806D001
:104CD00010D3032809D005D3042809D00AE0DFF84F
:104CE000C81307E0DFF8C41304E0DFF8C41301E0E1
:104CF000DFF8C01308467047383700208864024048
:104D00001064024010B50C46FFF7DEFF214689B261
:104D1000BDE8104008F080BA10B50C46FFF7D4FF8C
:104D2000214689B2BDE8104008F078BAE0B500230A
:104D30008DF8083001238DF80A30002A03D10C22A7
:104D40008DF8092002E008228DF8092004283CD8BB
:104D5000DFE800F00315212A2A004FF400600190DB
:104D600028208DF800000F208DF8010000208DF81C
:104D70000200012921D118468DF803001FE01846D2
:104D8000019010208DF8090006208DF800000E20FB
:104D90008DF80100EAE70220019007208DF800005D
:104DA0000F208DF80100E1E70420019008208DF824
:104DB00000000F208DF80100D8E78DF8030001A84E
:104DC00008F008FF00A808F054FF07BD4FF4006189
:104DD000B44808F01ABA00000C30014080B57B20BE
:104DE00008F03CF9002806D08BA0FDF771FD08F013
:104DF00047F9002002BD7A2008F030F9002802D0DF
:104E000086A0FDF765FD792008F028F9002802D07A
:104E100083A0FDF75DFD7C2008F020F9002802D07A
:104E200080A0FDF755FD7D2008F018F9002802D07C
:104E30007DA0FDF74DFD7E2008F010F9002802D07E
:104E40007AA0FDF745FD7F2008F008F9002802D080
:104E500077A0FDF73DFD08F013F9012002BD000029
:104E60003EB50C4615460422014602A8FDF780FC1B
:104E70000422214601A8FDF77BFC0422294600A854
:104E8000FDF776FC02A9002008F0CAFC01A9002069
:104E900008F03FFD08F038FD0446874A00230098DB
:104EA0001946101A63EB0101490241EAD051400250
:104EB00009F006F80090844205D2011B4FF0004033
:104EC00008F0F7FD37BDA04207D2C4F50070009985
:104ED00009184FF0004008F0ECFD37BD2DE9704394
:104EE00084B004460D46164602A9002008F0E7FCEF
:104EF00001A9002008F05DFD08F006FD00906E4A53
:104F0000A2FB00894FEA582848EAC958A2EB0800DA
:104F10000090042202A92046FDF72AFC042201A9E0
:104F20002846FDF725FC042200A93046FDF720FCA9
:104F3000BDE87F8370B48C1E012C01DA0C34401E56
:104F40003C216425B0FBF5F5C5EB90054FF4C87620
:104F5000B0FBF6F6751940F26F1674430C26B4FBDD
:104F6000F6F46419121940F26D1404FB0020534A40
:104F7000101800EB400203EBC200039A01FB002073
:104F8000049A01FB002070BC70471CB50C460168F8
:104F90000191416800918368C2680169491C4069B8
:104FA00000F26C70FFF7C6FF2060002016BD10B540
:104FB0008EB04348046801A9002008F080FC00A9D5
:104FC000002008F0F6FC9DF8040006909DF805000E
:104FD00005909DF8060004909DF80100401E089081
:104FE0009DF8020007909DF803006430099002A923
:104FF00004A8FFF7CAFF4FF47A706043400AC0F577
:105000007A700390029A4FF47A73C117E3FB02019E
:105010000EB010BD00200140504F520050494E00CC
:10502000424F5200534654004957440057574400DA
:105030004C50570098BD002000380240003C024010
:10504000AC36002000127A00809698000024F4000C
:1050500000366E010048E801005A620280F0FA0250
:1050600000BD0105843802400187930300700040B1
:10507000383700200100030082000700800007008D
:10508000840007000400001002000010400000101F
:1050900002000300A0BD002040380240180002407A
:1050A00010ED00E000000240000402400008024051
:1050B000000C02400010024000CA9A3B7505F5FF43
:1050C00028280040200110040F03020103F0001003
:1050D000060F01020103C00010080F01020103C006
:1050E0000010060F01020103F00010060F0102017B
:1050F00003C80010040F02020103A80010020F03EE
:105100000201030038B50020ADF800000446FDF7A9
:1051100064FB05464FF480512046FDF79EFD0A21B1
:105120002846FDF728FD00E0641C062C12D2DFF8AB
:10513000100D215C8DF800102018007A8DF8010008
:10514000022300AA72210720FDF717FC0028EBD1EB
:10515000002032BD012032BD2DE9FC4104468846C5
:10516000FCF7FAFC06460020ADF80400DFF8D45C3A
:10517000288D0746B8F1000F02D02043288501E0B2
:10518000A0432885012000900DF10603AB22722177
:105190000620FDF734FC002801D100205EE1288DB7
:1051A0000E2800F23F81DFE810F00F003D011C00E7
:1051B0003D013A003D013A003D01AB003D01AB002D
:1051C0003D01AB003D01AB0080208DF804000020C4
:1051D0008DF805009DF8060000F0FD008DF8060032
:1051E00020E181208DF8040001ACEE2060700223E4
:1051F00001AA72210920FDF7C0FB002801D100207F
:105200002CE16078E87280208DF804000320607043
:105210009DF8060000F0FD008DF8060002E19D20DB
:105220008DF8040001AC00206070022301AA7221F5
:105230000920FDF7A2FB002801D100200EE19E20ED
:105240008DF8040000206070022301AA7221092059
:10525000FDF793FB002801D10020FFE081208DF8AD
:105260000400FB206070022301AA72210920FDF7CF
:1052700084FB002801D10020F0E06078E8728E20E5
:105280008DF80400E87B002812D00C218F2008F054
:1052900058FF04218F2008F02AFF3021902008F0C9
:1052A00050FF3021902008F022FF4520607011E06F
:1052B0000C218F2008F045FF08218F2008F017FFF0
:1052C0003021902008F03DFF1021902008F00FFFC2
:1052D00082206070022301AA72210920FDF74DFB94
:1052E000002801D10020B9E080208DF8040027209B
:1052F00060709DF8060000F0FD008DF8060091E05A
:105300003846000701D408F0E2FF81208DF8040040
:1053100001ACFE206070022301AA72210920FDF772
:105320002CFB002801D1002098E06078E8728E20E4
:105330008DF80400E87B002812D00C218F2008F0A3
:1053400000FF04218F2008F0D2FE3021902008F0C9
:10535000F8FE3021902008F0CAFE4B20607011E06A
:105360000C218F2008F0EDFE08218F2008F0BFFEF1
:105370003021902008F0E5FE1021902008F0B7FEC3
:1053800085206070022301AA72210920FDF7F5FA39
:10539000002801D1002061E0380713D4B6F87A0064
:1053A000B6F87C10401AE884B6F87A104900A9844F
:1053B00089B2FF2901DDFF21A984A98C80B2A1EB6C
:1053C0004000E884A6208DF80400E87B00280AD07D
:1053D0006021A32008F0B5FE2021A32008F087FE5D
:1053E0005720607009E06021A32008F0AAFE402148
:1053F000A32008F07CFE8B206070022301AA72219A
:105400000920FDF7BAFA002801D1002026E080200B
:105410008DF80400672060709DF8060040F00200DF
:105420008DF80600022301AA72210920FDF7A5FAD2
:10543000002801D1002011E0AB208DF804009DF878
:1054400006008DF80500022301AA72210920FDF74C
:1054500094FA002801D1002000E00120BDE8F68187
:1054600010B534220021DFF8980BFEF7B3FBDFF80C
:10547000D4490120607309F00BF908F08DFE01207A
:10548000A074E07410BD10B582B00FF25800FDF7A3
:105490001FFA0020ADF8000080208DF8000000AC5D
:1054A00000206070022300AA72210620FDF765FA31
:1054B000002816D08C208DF8000000206070DFF8E6
:1054C000840900218172022300AA72210620FDF7BF
:1054D00054FA002805D0FFF7C3FF01210020FFF791
:1054E0003BFE13BD233E484C5300000010B582B074
:1054F0000FF24000FDF7ECF90020ADF80000044683
:1055000000E0641C052C12D2DFF8700D215C8DF8D0
:1055100000102018007A8DF80100022300AA7221E1
:105520000720FDF72AFA0028EBD1002016BD012044
:1055300016BD0000233E5052500000001CB50FF273
:105540008C00FDF7C5F90020ADF804008DF80600C9
:10555000FCF702FB80208DF8040001AC0020607095
:10556000022301AA72210620FDF707FA002801D1C3
:10557000002016BD8C208DF8040000206070DFF83C
:10558000844DA072022301AA72210620FDF7F5F9CD
:10559000002801D1002016BD0120207401460420FE
:1055A000FFF7DAFD002801D1002016BD0120009090
:1055B0000DF10603E52272210720FDF720FA0028ED
:1055C00001D1002016BD012016BD0000233E50521F
:1055D0004F00000000B583B00FF26800FDF778F9C6
:1055E0000020ADF806008DF80400FCF7B5FA802025
:1055F0008DF8060000208DF8070002230DF1060249
:1056000072210620FDF7B9F9002801D100200EBD56
:10561000DFF8F00C002101740420FFF79DFD002845
:1056200001D100200EBD0120009001ABE5227221C6
:105630000720FDF7E4F9002801D100200EBD01206C
:105640000EBD0000233E5052430000000120704771
:1056500030B583B004460020ADF80400DFF8E4570D
:10566000687D002828D1012000900DF105039322C8
:1056700072210620FDF7C3F900280DD09DF8050022
:10568000800724D50120009001AB9C2272210620C6
:10569000FDF7B5F9002801D100203EBD9DF80400BA
:1056A000A97E51FA80F080B2400820702078A87559
:1056B0009DF80400A8760AE0012808D1DFF8400927
:1056C0004169AA7E8918491021704069A876012095
:1056D0003EBD2DE9F04792B004468846FCF73CFAFF
:1056E0000546FDF77AF806460020ADF80800ADF84B
:1056F0000C008DF80A00012000900DF10A0393229E
:1057000072210620FDF77BF9002801D100207AE103
:105710000420009003AB942272210620FDF76FF95C
:10572000002801D100206EE1DFF818779DF80D0008
:105730009DF80C1041EA0020DFF8501D4843F97A2B
:10574000C1F580713A7BDFF8483DD25C12FB01F174
:1057500040F242325143B0FBF1F042F21171884203
:105760000AD300203875F87B00281DD10120F8737A
:10577000FFF789FE012046E141F65831884211D2F7
:10578000F87B00280ED09DF80A0080060CD5387DE5
:10579000411C3975652807DB0020F873FFF773FE9D
:1057A000012030E1002038759DF80A00800640F1A4
:1057B0002981002078754146601CFFF749FFB87CBD
:1057C000002802D00020B8740EE1DFF8C88C6078A1
:1057D00088F80000787B00280AD008F0E7FC002851
:1057E00006D1787C002803D0607808F0F1FC87E0CF
:1057F000387C002839D0787CB97A084335D100202C
:1058000030758C208DF808000DF10809202089F8EA
:105810000100B872022302AA72210620FDF7ADF83A
:10582000002801D10020EEE089208DF8080000203A
:1058300089F80100022302AA72210720FDF79DF8D2
:10584000002801D10020DEE08B208DF80800B5F89B
:105850007A0089F80100022302AA72210720FDF7CD
:105860008CF8002801D10020CDE0787C00280ED1F2
:1058700005F17A004288B5F87A100FF29010FDF722
:1058800027F861780FF29410FDF722F838E04146CE
:1058900084B06846182201F0F5FA0FBC08F009FF41
:1058A00004A808F06CFFDFF8609D484604A9342284
:1058B00001F0E8FA99F81C00002814D097F808A025
:1058C0003420DFF83C1710FB0A104946342201F05F
:1058D000D9FA0AF101003872C0B2092801DB401E72
:1058E00038720120787209F11C00417D88F814108B
:1058F000817D88F81510007D002801D0FFF7B0FDEC
:10590000387C002870D0787C00286DD16078B5F89C
:105910007A10884231D3307D00282ED10120B8730F
:1059200020702078307589208DF808000DF1080965
:1059300005F17A00408889F80100022302AA722149
:105940000720FDF71AF8002801D100205BE08B202A
:105950008DF80800FF2089F80100022302AA7221B5
:105960000720FDF70AF8002801D100204BE06178FC
:105970000FF2B400FCF7ACFF36E005F17A00408886
:105980006178884230D3307D01282DD10120B87351
:10599000002020702078307589208DF808000DF1E6
:1059A0000809002089F80100022302AA72210720B9
:1059B000FCF7E3FF002801D1002024E08B208DF8C4
:1059C0000800B5F87A0089F80100022302AA7221C2
:1059D0000720FCF7D2FF002801D1002013E06178F6
:1059E0000FF24C00FCF774FF0120009003ABE5229E
:1059F00072210720FDF703F8002801D1002002E002
:105A0000012000E0002012B0BDE8F087233E557071
:105A10003D25642C4C6F3D2564000000233E505210
:105A20004157202564000000233E503120256400AA
:105A3000233E5032202564002DE9F84304460D46EC
:105A4000DFF80064F07D002804D000F0DFFD0020C6
:105A500030838BE0FCF780F800273846ADF8000073
:105A60000020308329462046FFF733FE00280DD062
:105A7000307C00280AD0B07B002807D00FF2F0005D
:105A8000FCF726FF0020B07301207076707C0028A0
:105A900066D0DFF86C8DD8F8189009F10C00417DC4
:105AA000C068D9F80C20801800F0CEF9002857D033
:105AB00001203076707A002801D000207072307C8E
:105AC00000284BD0D9F80C0040780DF1000989F876
:105AD0000100B18C814212D2FCF77FFE007D0028CC
